{
  "_format": "hh-sol-artifact-1",
  "contractName": "mintOrientation",
  "sourceName": "contracts/mintOrientation.sol",
  "abi": [
    {
      "inputs": [
        {
          "internalType": "address",
          "name": "_mintContractAddress",
          "type": "address"
        },
        {
          "internalType": "address",
          "name": "_receiverAddress",
          "type": "address"
        }
      ],
      "stateMutability": "nonpayable",
      "type": "constructor"
    },
    {
      "anonymous": false,
      "inputs": [
        {
          "indexed": true,
          "internalType": "address",
          "name": "previousOwner",
          "type": "address"
        },
        {
          "indexed": true,
          "internalType": "address",
          "name": "newOwner",
          "type": "address"
        }
      ],
      "name": "OwnershipTransferred",
      "type": "event"
    },
    {
      "inputs": [],
      "name": "TEAMGIVEAWAY_TYPEHASH",
      "outputs": [
        {
          "internalType": "bytes32",
          "name": "",
          "type": "bytes32"
        }
      ],
      "stateMutability": "view",
      "type": "function"
    },
    {
      "inputs": [],
      "name": "WHITELIST_TYPEHASH",
      "outputs": [
        {
          "internalType": "bytes32",
          "name": "",
          "type": "bytes32"
        }
      ],
      "stateMutability": "view",
      "type": "function"
    },
    {
      "inputs": [],
      "name": "balanceof",
      "outputs": [
        {
          "internalType": "uint256",
          "name": "",
          "type": "uint256"
        }
      ],
      "stateMutability": "view",
      "type": "function"
    },
    {
      "inputs": [],
      "name": "getCurrentTokenId",
      "outputs": [
        {
          "internalType": "uint256",
          "name": "",
          "type": "uint256"
        }
      ],
      "stateMutability": "view",
      "type": "function"
    },
    {
      "inputs": [],
      "name": "getMaxSupply",
      "outputs": [
        {
          "internalType": "uint256",
          "name": "",
          "type": "uint256"
        }
      ],
      "stateMutability": "view",
      "type": "function"
    },
    {
      "inputs": [],
      "name": "maxPerPublicMint",
      "outputs": [
        {
          "internalType": "uint256",
          "name": "",
          "type": "uint256"
        }
      ],
      "stateMutability": "view",
      "type": "function"
    },
    {
      "inputs": [],
      "name": "mintApi",
      "outputs": [
        {
          "internalType": "contract mint",
          "name": "",
          "type": "address"
        }
      ],
      "stateMutability": "view",
      "type": "function"
    },
    {
      "inputs": [],
      "name": "mintPaused",
      "outputs": [
        {
          "internalType": "bool",
          "name": "",
          "type": "bool"
        }
      ],
      "stateMutability": "view",
      "type": "function"
    },
    {
      "inputs": [
        {
          "internalType": "uint256",
          "name": "_nftAmount",
          "type": "uint256"
        }
      ],
      "name": "mintPublic",
      "outputs": [],
      "stateMutability": "payable",
      "type": "function"
    },
    {
      "inputs": [
        {
          "internalType": "address",
          "name": "_to",
          "type": "address"
        },
        {
          "internalType": "uint256",
          "name": "_nftAmount",
          "type": "uint256"
        },
        {
          "internalType": "uint8",
          "name": "_vSig",
          "type": "uint8"
        },
        {
          "internalType": "bytes32",
          "name": "_rSig",
          "type": "bytes32"
        },
        {
          "internalType": "bytes32",
          "name": "_sSig",
          "type": "bytes32"
        }
      ],
      "name": "mintToTeamMembers",
      "outputs": [],
      "stateMutability": "payable",
      "type": "function"
    },
    {
      "inputs": [
        {
          "internalType": "uint256",
          "name": "_nftAmount",
          "type": "uint256"
        },
        {
          "internalType": "uint8",
          "name": "_vSig",
          "type": "uint8"
        },
        {
          "internalType": "bytes32",
          "name": "_rSig",
          "type": "bytes32"
        },
        {
          "internalType": "bytes32",
          "name": "_sSig",
          "type": "bytes32"
        }
      ],
      "name": "mintToWhitelist",
      "outputs": [],
      "stateMutability": "payable",
      "type": "function"
    },
    {
      "inputs": [],
      "name": "owner",
      "outputs": [
        {
          "internalType": "address",
          "name": "",
          "type": "address"
        }
      ],
      "stateMutability": "view",
      "type": "function"
    },
    {
      "inputs": [],
      "name": "price",
      "outputs": [
        {
          "internalType": "uint256",
          "name": "",
          "type": "uint256"
        }
      ],
      "stateMutability": "view",
      "type": "function"
    },
    {
      "inputs": [
        {
          "internalType": "address",
          "name": "",
          "type": "address"
        }
      ],
      "name": "publicMap",
      "outputs": [
        {
          "internalType": "uint256",
          "name": "",
          "type": "uint256"
        }
      ],
      "stateMutability": "view",
      "type": "function"
    },
    {
      "inputs": [],
      "name": "renounceOwnership",
      "outputs": [],
      "stateMutability": "nonpayable",
      "type": "function"
    },
    {
      "inputs": [],
      "name": "reserve",
      "outputs": [
        {
          "internalType": "address payable",
          "name": "",
          "type": "address"
        }
      ],
      "stateMutability": "view",
      "type": "function"
    },
    {
      "inputs": [],
      "name": "saleStage",
      "outputs": [
        {
          "internalType": "enum mintOrientation.SalePhase",
          "name": "",
          "type": "uint8"
        }
      ],
      "stateMutability": "view",
      "type": "function"
    },
    {
      "inputs": [
        {
          "internalType": "uint256",
          "name": "_maxPerMintTeamMember",
          "type": "uint256"
        }
      ],
      "name": "setMaxPerMintTeamMember",
      "outputs": [],
      "stateMutability": "nonpayable",
      "type": "function"
    },
    {
      "inputs": [
        {
          "internalType": "uint256",
          "name": "_maxPerMintWhitelister",
          "type": "uint256"
        }
      ],
      "name": "setMaxPerMintWhitelister",
      "outputs": [],
      "stateMutability": "nonpayable",
      "type": "function"
    },
    {
      "inputs": [
        {
          "internalType": "uint256",
          "name": "_maxPerTeamMemberCanHold",
          "type": "uint256"
        }
      ],
      "name": "setMaxPerTeamMemberCanHold",
      "outputs": [],
      "stateMutability": "nonpayable",
      "type": "function"
    },
    {
      "inputs": [
        {
          "internalType": "uint256",
          "name": "_maxPerWhitelisterCanHold",
          "type": "uint256"
        }
      ],
      "name": "setMaxPerWhitelisterCanHold",
      "outputs": [],
      "stateMutability": "nonpayable",
      "type": "function"
    },
    {
      "inputs": [
        {
          "internalType": "uint256",
          "name": "_maxTeamMint",
          "type": "uint256"
        }
      ],
      "name": "setMaxTeamMint",
      "outputs": [],
      "stateMutability": "nonpayable",
      "type": "function"
    },
    {
      "inputs": [
        {
          "internalType": "uint256",
          "name": "_maxWhitelistMint",
          "type": "uint256"
        }
      ],
      "name": "setMaxWhitelistMint",
      "outputs": [],
      "stateMutability": "nonpayable",
      "type": "function"
    },
    {
      "inputs": [],
      "name": "setSalePhaseDefault",
      "outputs": [],
      "stateMutability": "nonpayable",
      "type": "function"
    },
    {
      "inputs": [],
      "name": "setSalePhasePreSale",
      "outputs": [],
      "stateMutability": "nonpayable",
      "type": "function"
    },
    {
      "inputs": [],
      "name": "setSalePhasePublicSale",
      "outputs": [],
      "stateMutability": "nonpayable",
      "type": "function"
    },
    {
      "inputs": [],
      "name": "setmintPause",
      "outputs": [],
      "stateMutability": "nonpayable",
      "type": "function"
    },
    {
      "inputs": [
        {
          "internalType": "address",
          "name": "",
          "type": "address"
        }
      ],
      "name": "teamMap",
      "outputs": [
        {
          "internalType": "uint256",
          "name": "",
          "type": "uint256"
        }
      ],
      "stateMutability": "view",
      "type": "function"
    },
    {
      "inputs": [
        {
          "internalType": "address",
          "name": "newOwner",
          "type": "address"
        }
      ],
      "name": "transferOwnership",
      "outputs": [],
      "stateMutability": "nonpayable",
      "type": "function"
    },
    {
      "inputs": [
        {
          "internalType": "address",
          "name": "",
          "type": "address"
        }
      ],
      "name": "whitelistMap",
      "outputs": [
        {
          "internalType": "uint256",
          "name": "",
          "type": "uint256"
        }
      ],
      "stateMutability": "view",
      "type": "function"
    },
    {
      "inputs": [],
      "name": "withdraw",
      "outputs": [],
      "stateMutability": "nonpayable",
      "type": "function"
    }
  ],
  "bytecode": "0x6101406040526000600360006101000a81548160ff021916908315150217905550600260045560016005556002600655600060075560056009556001600a556002600b556000600c556001600e556000601260146101000a81548160ff0219169083600281111562000076576200007562000396565b5b02179055503480156200008857600080fd5b506040516200342d3803806200342d8339818101604052810190620000ae91906200042f565b6040518060400160405280600f81526020017f6d696e744f7269656e746174696f6e00000000000000000000000000000000008152506040518060400160405280600181526020017f310000000000000000000000000000000000000000000000000000000000000081525060008280519060200120905060008280519060200120905060007f8b73c3c69bb8fe3d512ecc4cf759cc79239f7b179b0ffacaa9a75d522b39400f90508260e081815250508161010081815250504660a08181525050620001838184846200028e60201b60201c565b608081815250503073ffffffffffffffffffffffffffffffffffffffff1660c08173ffffffffffffffffffffffffffffffffffffffff1660601b815250508061012081815250505050505050620001ef620001e3620002ca60201b60201c565b620002d260201b60201c565b600180819055506611c37937e0800060028190555081601160006101000a81548173ffffffffffffffffffffffffffffffffffffffff021916908373ffffffffffffffffffffffffffffffffffffffff16021790555080601260006101000a81548173ffffffffffffffffffffffffffffffffffffffff021916908373ffffffffffffffffffffffffffffffffffffffff16021790555050506200051a565b60008383834630604051602001620002ab959493929190620004bd565b6040516020818303038152906040528051906020012090509392505050565b600033905090565b60008060009054906101000a900473ffffffffffffffffffffffffffffffffffffffff169050816000806101000a81548173ffffffffffffffffffffffffffffffffffffffff021916908373ffffffffffffffffffffffffffffffffffffffff1602179055508173ffffffffffffffffffffffffffffffffffffffff168173ffffffffffffffffffffffffffffffffffffffff167f8be0079c531659141344cd1fd0a4f28419497f9722a3daafe3b4186f6b6457e060405160405180910390a35050565b7f4e487b7100000000000000000000000000000000000000000000000000000000600052602160045260246000fd5b600080fd5b600073ffffffffffffffffffffffffffffffffffffffff82169050919050565b6000620003f782620003ca565b9050919050565b6200040981620003ea565b81146200041557600080fd5b50565b6000815190506200042981620003fe565b92915050565b60008060408385031215620004495762000448620003c5565b5b6000620004598582860162000418565b92505060206200046c8582860162000418565b9150509250929050565b6000819050919050565b6200048b8162000476565b82525050565b6000819050919050565b620004a68162000491565b82525050565b620004b781620003ea565b82525050565b600060a082019050620004d4600083018862000480565b620004e3602083018762000480565b620004f2604083018662000480565b6200050160608301856200049b565b620005106080830184620004ac565b9695505050505050565b60805160a05160c05160601c60e0516101005161012051612ec06200056d6000396000611ea301526000611ee501526000611ec401526000611df901526000611e4f01526000611e780152612ec06000f3fe6080604052600436106101d85760003560e01c8063715018a611610102578063a5cf5b4411610095578063eaef6c2611610064578063eaef6c26146105fc578063efd0cbf914610627578063f072bd0414610643578063f2fde38b1461066c576101d8565b8063a5cf5b4414610563578063c9604f901461058c578063cb84516e146105a8578063cd3293de146105d1576101d8565b80638fceddaf116100d15780638fceddaf146104a757806391c2d0a1146104d057806396c863fb146104fb578063a035b1fe14610538576101d8565b8063715018a61461041157806371978011146104285780637e4831d3146104515780638da5cb5b1461047c576101d8565b8063455d40e31161017a578063592b0a0b11610149578063592b0a0b146103765780635f45d1071461039f57806360958559146103ca5780636301dccf146103e6576101d8565b8063455d40e3146102de5780634aaca86d146102f55780634c0f38c214610320578063561892361461034b576101d8565b806330b85947116101b657806330b859471461025c57806332531c3c1461027357806339d17327146102b05780633ccfd60b146102c7576101d8565b806308b89ac0146101dd57806310be8d12146101f45780632980a5d314610231575b600080fd5b3480156101e957600080fd5b506101f2610695565b005b34801561020057600080fd5b5061021b60048036038101906102169190611fdf565b6106c9565b6040516102289190612025565b60405180910390f35b34801561023d57600080fd5b506102466106e1565b6040516102539190612025565b60405180910390f35b34801561026857600080fd5b506102716106f1565b005b34801561027f57600080fd5b5061029a60048036038101906102959190611fdf565b610726565b6040516102a79190612025565b60405180910390f35b3480156102bc57600080fd5b506102c561073e565b005b3480156102d357600080fd5b506102dc610773565b005b3480156102ea57600080fd5b506102f36107ec565b005b34801561030157600080fd5b5061030a610821565b60405161031791906120b7565b60405180910390f35b34801561032c57600080fd5b50610335610834565b6040516103429190612025565b60405180910390f35b34801561035757600080fd5b506103606108db565b60405161036d9190612025565b60405180910390f35b34801561038257600080fd5b5061039d600480360381019061039891906120fe565b610981565b005b3480156103ab57600080fd5b506103b4610993565b6040516103c19190612025565b60405180910390f35b6103e460048036038101906103df919061219a565b610999565b005b3480156103f257600080fd5b506103fb610fe3565b6040516104089190612224565b60405180910390f35b34801561041d57600080fd5b50610426611007565b005b34801561043457600080fd5b5061044f600480360381019061044a91906120fe565b61101b565b005b34801561045d57600080fd5b5061046661102d565b604051610473919061225a565b60405180910390f35b34801561048857600080fd5b50610491611040565b60405161049e9190612284565b60405180910390f35b3480156104b357600080fd5b506104ce60048036038101906104c991906120fe565b611069565b005b3480156104dc57600080fd5b506104e561107b565b6040516104f29190612224565b60405180910390f35b34801561050757600080fd5b50610522600480360381019061051d9190611fdf565b61109f565b60405161052f9190612025565b60405180910390f35b34801561054457600080fd5b5061054d6110b7565b60405161055a9190612025565b60405180910390f35b34801561056f57600080fd5b5061058a600480360381019061058591906120fe565b6110bd565b005b6105a660048036038101906105a1919061229f565b6110cf565b005b3480156105b457600080fd5b506105cf60048036038101906105ca91906120fe565b6117d6565b005b3480156105dd57600080fd5b506105e66117e8565b6040516105f39190612327565b60405180910390f35b34801561060857600080fd5b5061061161180e565b60405161061e91906123a1565b60405180910390f35b610641600480360381019061063c91906120fe565b611834565b005b34801561064f57600080fd5b5061066a600480360381019061066591906120fe565b611bfb565b005b34801561067857600080fd5b50610693600480360381019061068e9190611fdf565b611c0d565b005b61069d611c91565b600360009054906101000a900460ff1615600360006101000a81548160ff021916908315150217905550565b60086020528060005260406000206000915090505481565b60006106eb611c91565b47905090565b6106f9611c91565b6000601260146101000a81548160ff0219169083600281111561071f5761071e612040565b5b0217905550565b600d6020528060005260406000206000915090505481565b610746611c91565b6001601260146101000a81548160ff0219169083600281111561076c5761076b612040565b5b0217905550565b61077b611c91565b6000479050601260009054906101000a900473ffffffffffffffffffffffffffffffffffffffff1673ffffffffffffffffffffffffffffffffffffffff166108fc829081150290604051600060405180830381858888f193505050501580156107e8573d6000803e3d6000fd5b5050565b6107f4611c91565b6002601260146101000a81548160ff0219169083600281111561081a57610819612040565b5b0217905550565b601260149054906101000a900460ff1681565b6000601160009054906101000a900473ffffffffffffffffffffffffffffffffffffffff1673ffffffffffffffffffffffffffffffffffffffff166332cb6b0c6040518163ffffffff1660e01b815260040160206040518083038186803b15801561089e57600080fd5b505afa1580156108b2573d6000803e3d6000fd5b505050506040513d601f19601f820116820180604052508101906108d691906123d1565b905090565b6000601160009054906101000a900473ffffffffffffffffffffffffffffffffffffffff1673ffffffffffffffffffffffffffffffffffffffff16629a9b7b6040518163ffffffff1660e01b815260040160206040518083038186803b15801561094457600080fd5b505afa158015610958573d6000803e3d6000fd5b505050506040513d601f19601f8201168201806040525081019061097c91906123d1565b905090565b610989611c91565b80600b8190555050565b600e5481565b600360009054906101000a900460ff16156109e9576040517f08c379a00000000000000000000000000000000000000000000000000000000081526004016109e09061245b565b60405180910390fd5b600160028111156109fd576109fc612040565b5b601260149054906101000a900460ff166002811115610a1f57610a1e612040565b5b14610a5f576040517f08c379a0000000000000000000000000000000000000000000000000000000008152600401610a56906124ed565b60405180910390fd5b60026001541415610aa5576040517f08c379a0000000000000000000000000000000000000000000000000000000008152600401610a9c90612559565b60405180910390fd5b60026001819055506000601160009054906101000a900473ffffffffffffffffffffffffffffffffffffffff1673ffffffffffffffffffffffffffffffffffffffff16629a9b7b6040518163ffffffff1660e01b815260040160206040518083038186803b158015610b1657600080fd5b505afa158015610b2a573d6000803e3d6000fd5b505050506040513d601f19601f82011682018060405250810190610b4e91906123d1565b90506000601160009054906101000a900473ffffffffffffffffffffffffffffffffffffffff1673ffffffffffffffffffffffffffffffffffffffff166332cb6b0c6040518163ffffffff1660e01b815260040160206040518083038186803b158015610bba57600080fd5b505afa158015610bce573d6000803e3d6000fd5b505050506040513d601f19601f82011682018060405250810190610bf291906123d1565b90506000600860008973ffffffffffffffffffffffffffffffffffffffff1673ffffffffffffffffffffffffffffffffffffffff1681526020019081526020016000205490506006548782610c4791906125a8565b1115610c88576040517f08c379a0000000000000000000000000000000000000000000000000000000008152600401610c7f90612670565b60405180910390fd5b60008711610ccb576040517f08c379a0000000000000000000000000000000000000000000000000000000008152600401610cc2906126dc565b60405180910390fd5b600554871115610d10576040517f08c379a0000000000000000000000000000000000000000000000000000000008152600401610d0790612748565b60405180910390fd5b60045487600754610d2191906125a8565b1115610d62576040517f08c379a0000000000000000000000000000000000000000000000000000000008152600401610d59906127b4565b60405180910390fd5b818784610d6f91906125a8565b1115610db0576040517f08c379a0000000000000000000000000000000000000000000000000000000008152600401610da790612820565b60405180910390fd5b6000610e1a7fb8d098311b1fb140449560f5432cbd4e00f50610577e82d0ad4b86b0599909cf8a8a60006001811115610dec57610deb612040565b5b604051602001610dff9493929190612840565b60405160208183030381529060405280519060200120611d0f565b9050600060018289898960405160008152602001604052604051610e419493929190612894565b6020604051602081039080840390855afa158015610e63573d6000803e3d6000fd5b505050602060405103519050610e77611040565b73ffffffffffffffffffffffffffffffffffffffff168173ffffffffffffffffffffffffffffffffffffffff1614610ee4576040517f08c379a0000000000000000000000000000000000000000000000000000000008152600401610edb90612971565b60405180910390fd5b601160009054906101000a900473ffffffffffffffffffffffffffffffffffffffff1673ffffffffffffffffffffffffffffffffffffffff1663a14481948b8b6040518363ffffffff1660e01b8152600401610f41929190612991565b600060405180830381600087803b158015610f5b57600080fd5b505af1158015610f6f573d6000803e3d6000fd5b505050508860076000828254610f8591906125a8565b9250508190555088600860008c73ffffffffffffffffffffffffffffffffffffffff1673ffffffffffffffffffffffffffffffffffffffff168152602001908152602001600020819055505050505050600180819055505050505050565b7f5d04ce8adc8a83e1aa5723d211978589790ca65b32ee707cf52bfa46ba00940b81565b61100f611c91565b6110196000611d29565b565b611023611c91565b8060098190555050565b600360009054906101000a900460ff1681565b60008060009054906101000a900473ffffffffffffffffffffffffffffffffffffffff16905090565b611071611c91565b8060048190555050565b7fb8d098311b1fb140449560f5432cbd4e00f50610577e82d0ad4b86b0599909cf81565b60106020528060005260406000206000915090505481565b60025481565b6110c5611c91565b8060068190555050565b600360009054906101000a900460ff161561111f576040517f08c379a00000000000000000000000000000000000000000000000000000000081526004016111169061245b565b60405180910390fd5b6001600281111561113357611132612040565b5b601260149054906101000a900460ff16600281111561115557611154612040565b5b14611195576040517f08c379a000000000000000000000000000000000000000000000000000000000815260040161118c906124ed565b60405180910390fd5b600260015414156111db576040517f08c379a00000000000000000000000000000000000000000000000000000000081526004016111d290612559565b60405180910390fd5b60026001819055506000601160009054906101000a900473ffffffffffffffffffffffffffffffffffffffff1673ffffffffffffffffffffffffffffffffffffffff16629a9b7b6040518163ffffffff1660e01b815260040160206040518083038186803b15801561124c57600080fd5b505afa158015611260573d6000803e3d6000fd5b505050506040513d601f19601f8201168201806040525081019061128491906123d1565b90506000601160009054906101000a900473ffffffffffffffffffffffffffffffffffffffff1673ffffffffffffffffffffffffffffffffffffffff166332cb6b0c6040518163ffffffff1660e01b815260040160206040518083038186803b1580156112f057600080fd5b505afa158015611304573d6000803e3d6000fd5b505050506040513d601f19601f8201168201806040525081019061132891906123d1565b90506000600d60003373ffffffffffffffffffffffffffffffffffffffff1673ffffffffffffffffffffffffffffffffffffffff168152602001908152602001600020549050600b54878261137d91906125a8565b11156113be576040517f08c379a00000000000000000000000000000000000000000000000000000000081526004016113b590612670565b60405180910390fd5b60008711611401576040517f08c379a00000000000000000000000000000000000000000000000000000000081526004016113f8906126dc565b60405180910390fd5b600a54871115611446576040517f08c379a000000000000000000000000000000000000000000000000000000000815260040161143d90612748565b60405180910390fd5b60095487600c5461145791906125a8565b1115611498576040517f08c379a000000000000000000000000000000000000000000000000000000000815260040161148f90612a06565b60405180910390fd5b8187846114a591906125a8565b11156114e6576040517f08c379a00000000000000000000000000000000000000000000000000000000081526004016114dd90612820565b60405180910390fd5b34876002546114f59190612a26565b1115611536576040517f08c379a000000000000000000000000000000000000000000000000000000000815260040161152d90612acc565b60405180910390fd5b600061159f7f5d04ce8adc8a83e1aa5723d211978589790ca65b32ee707cf52bfa46ba00940b338a60018081111561157157611570612040565b5b6040516020016115849493929190612840565b60405160208183030381529060405280519060200120611d0f565b90506000600182898989604051600081526020016040526040516115c69493929190612894565b6020604051602081039080840390855afa1580156115e8573d6000803e3d6000fd5b5050506020604051035190506115fc611040565b73ffffffffffffffffffffffffffffffffffffffff168173ffffffffffffffffffffffffffffffffffffffff1614611669576040517f08c379a000000000000000000000000000000000000000000000000000000000815260040161166090612971565b60405180910390fd5b601160009054906101000a900473ffffffffffffffffffffffffffffffffffffffff1673ffffffffffffffffffffffffffffffffffffffff1663a1448194338b6040518363ffffffff1660e01b81526004016116c6929190612991565b600060405180830381600087803b1580156116e057600080fd5b505af11580156116f4573d6000803e3d6000fd5b5050505088600c600082825461170a91906125a8565b9250508190555088600d60003373ffffffffffffffffffffffffffffffffffffffff1673ffffffffffffffffffffffffffffffffffffffff168152602001908152602001600020819055506000896002546117659190612a26565b346117709190612aec565b905060008111156117c3573373ffffffffffffffffffffffffffffffffffffffff166108fc829081150290604051600060405180830381858888f193505050501580156117c1573d6000803e3d6000fd5b505b5050505050506001808190555050505050565b6117de611c91565b8060058190555050565b601260009054906101000a900473ffffffffffffffffffffffffffffffffffffffff1681565b601160009054906101000a900473ffffffffffffffffffffffffffffffffffffffff1681565b600360009054906101000a900460ff1615611884576040517f08c379a000000000000000000000000000000000000000000000000000000000815260040161187b9061245b565b60405180910390fd5b60028081111561189757611896612040565b5b601260149054906101000a900460ff1660028111156118b9576118b8612040565b5b146118f9576040517f08c379a00000000000000000000000000000000000000000000000000000000081526004016118f090612b92565b60405180910390fd5b6000601160009054906101000a900473ffffffffffffffffffffffffffffffffffffffff1673ffffffffffffffffffffffffffffffffffffffff166332cb6b0c6040518163ffffffff1660e01b815260040160206040518083038186803b15801561196357600080fd5b505afa158015611977573d6000803e3d6000fd5b505050506040513d601f19601f8201168201806040525081019061199b91906123d1565b9050600e548211156119e2576040517f08c379a00000000000000000000000000000000000000000000000000000000081526004016119d990612bfe565b60405180910390fd5b8082600754600c54600f546119f791906125a8565b611a0191906125a8565b611a0b91906125a8565b1115611a4c576040517f08c379a0000000000000000000000000000000000000000000000000000000008152600401611a4390612c6a565b60405180910390fd5b3482600254611a5b9190612a26565b1115611a9c576040517f08c379a0000000000000000000000000000000000000000000000000000000008152600401611a9390612acc565b60405180910390fd5b601160009054906101000a900473ffffffffffffffffffffffffffffffffffffffff1673ffffffffffffffffffffffffffffffffffffffff1663a144819433846040518363ffffffff1660e01b8152600401611af9929190612991565b600060405180830381600087803b158015611b1357600080fd5b505af1158015611b27573d6000803e3d6000fd5b5050505081600f6000828254611b3d91906125a8565b9250508190555081601060003373ffffffffffffffffffffffffffffffffffffffff1673ffffffffffffffffffffffffffffffffffffffff16815260200190815260200160002081905550600082600254611b989190612a26565b34611ba39190612aec565b90506000811115611bf6573373ffffffffffffffffffffffffffffffffffffffff166108fc829081150290604051600060405180830381858888f19350505050158015611bf4573d6000803e3d6000fd5b505b505050565b611c03611c91565b80600a8190555050565b611c15611c91565b600073ffffffffffffffffffffffffffffffffffffffff168173ffffffffffffffffffffffffffffffffffffffff161415611c85576040517f08c379a0000000000000000000000000000000000000000000000000000000008152600401611c7c90612cfc565b60405180910390fd5b611c8e81611d29565b50565b611c99611ded565b73ffffffffffffffffffffffffffffffffffffffff16611cb7611040565b73ffffffffffffffffffffffffffffffffffffffff1614611d0d576040517f08c379a0000000000000000000000000000000000000000000000000000000008152600401611d0490612d68565b60405180910390fd5b565b6000611d22611d1c611df5565b83611f0f565b9050919050565b60008060009054906101000a900473ffffffffffffffffffffffffffffffffffffffff169050816000806101000a81548173ffffffffffffffffffffffffffffffffffffffff021916908373ffffffffffffffffffffffffffffffffffffffff1602179055508173ffffffffffffffffffffffffffffffffffffffff168173ffffffffffffffffffffffffffffffffffffffff167f8be0079c531659141344cd1fd0a4f28419497f9722a3daafe3b4186f6b6457e060405160405180910390a35050565b600033905090565b60007f000000000000000000000000000000000000000000000000000000000000000073ffffffffffffffffffffffffffffffffffffffff163073ffffffffffffffffffffffffffffffffffffffff16148015611e7157507f000000000000000000000000000000000000000000000000000000000000000046145b15611e9e577f00000000000000000000000000000000000000000000000000000000000000009050611f0c565b611f097f00000000000000000000000000000000000000000000000000000000000000007f00000000000000000000000000000000000000000000000000000000000000007f0000000000000000000000000000000000000000000000000000000000000000611f42565b90505b90565b60008282604051602001611f24929190612e00565b60405160208183030381529060405280519060200120905092915050565b60008383834630604051602001611f5d959493929190612e37565b6040516020818303038152906040528051906020012090509392505050565b600080fd5b600073ffffffffffffffffffffffffffffffffffffffff82169050919050565b6000611fac82611f81565b9050919050565b611fbc81611fa1565b8114611fc757600080fd5b50565b600081359050611fd981611fb3565b92915050565b600060208284031215611ff557611ff4611f7c565b5b600061200384828501611fca565b91505092915050565b6000819050919050565b61201f8161200c565b82525050565b600060208201905061203a6000830184612016565b92915050565b7f4e487b7100000000000000000000000000000000000000000000000000000000600052602160045260246000fd5b600381106120805761207f612040565b5b50565b60008190506120918261206f565b919050565b60006120a182612083565b9050919050565b6120b181612096565b82525050565b60006020820190506120cc60008301846120a8565b92915050565b6120db8161200c565b81146120e657600080fd5b50565b6000813590506120f8816120d2565b92915050565b60006020828403121561211457612113611f7c565b5b6000612122848285016120e9565b91505092915050565b600060ff82169050919050565b6121418161212b565b811461214c57600080fd5b50565b60008135905061215e81612138565b92915050565b6000819050919050565b61217781612164565b811461218257600080fd5b50565b6000813590506121948161216e565b92915050565b600080600080600060a086880312156121b6576121b5611f7c565b5b60006121c488828901611fca565b95505060206121d5888289016120e9565b94505060406121e68882890161214f565b93505060606121f788828901612185565b925050608061220888828901612185565b9150509295509295909350565b61221e81612164565b82525050565b60006020820190506122396000830184612215565b92915050565b60008115159050919050565b6122548161223f565b82525050565b600060208201905061226f600083018461224b565b92915050565b61227e81611fa1565b82525050565b60006020820190506122996000830184612275565b92915050565b600080600080608085870312156122b9576122b8611f7c565b5b60006122c7878288016120e9565b94505060206122d88782880161214f565b93505060406122e987828801612185565b92505060606122fa87828801612185565b91505092959194509250565b600061231182611f81565b9050919050565b61232181612306565b82525050565b600060208201905061233c6000830184612318565b92915050565b6000819050919050565b600061236761236261235d84611f81565b612342565b611f81565b9050919050565b60006123798261234c565b9050919050565b600061238b8261236e565b9050919050565b61239b81612380565b82525050565b60006020820190506123b66000830184612392565b92915050565b6000815190506123cb816120d2565b92915050565b6000602082840312156123e7576123e6611f7c565b5b60006123f5848285016123bc565b91505092915050565b600082825260208201905092915050565b7f53746f726520697320636c6f7365640000000000000000000000000000000000600082015250565b6000612445600f836123fe565b91506124508261240f565b602082019050919050565b6000602082019050818103600083015261247481612438565b9050919050565b7f4974206973206e6f74206f70656e656420666f72207468652050726553616c6560008201527f207965742e000000000000000000000000000000000000000000000000000000602082015250565b60006124d76025836123fe565b91506124e28261247b565b604082019050919050565b60006020820190508181036000830152612506816124ca565b9050919050565b7f5265656e7472616e637947756172643a207265656e7472616e742063616c6c00600082015250565b6000612543601f836123fe565b915061254e8261250d565b602082019050919050565b6000602082019050818103600083015261257281612536565b9050919050565b7f4e487b7100000000000000000000000000000000000000000000000000000000600052601160045260246000fd5b60006125b38261200c565b91506125be8361200c565b9250827fffffffffffffffffffffffffffffffffffffffffffffffffffffffffffffffff038211156125f3576125f2612579565b5b828201905092915050565b7f4f766572206d6178206361706163697479206120706572736f6e2063616e206860008201527f6f6c640000000000000000000000000000000000000000000000000000000000602082015250565b600061265a6023836123fe565b9150612665826125fe565b604082019050919050565b600060208201905081810360008301526126898161264d565b9050919050565b7f68617320746f20627579206174206c65617374206f6e65204e46540000000000600082015250565b60006126c6601b836123fe565b91506126d182612690565b602082019050919050565b600060208201905081810360008301526126f5816126b9565b9050919050565b7f657863656564206d617869756d20627579696e6720616d6f756e740000000000600082015250565b6000612732601b836123fe565b915061273d826126fc565b602082019050919050565b6000602082019050818103600083015261276181612725565b9050919050565b7f4d6178206e756d626572206f6620676976656177617973207265616368656400600082015250565b600061279e601f836123fe565b91506127a982612768565b602082019050919050565b600060208201905081810360008301526127cd81612791565b9050919050565b7f6e6f7420656e6f75676820737570706c79206f66204e46547300000000000000600082015250565b600061280a6019836123fe565b9150612815826127d4565b602082019050919050565b60006020820190508181036000830152612839816127fd565b9050919050565b60006080820190506128556000830187612215565b6128626020830186612275565b61286f6040830185612016565b61287c6060830184612016565b95945050505050565b61288e8161212b565b82525050565b60006080820190506128a96000830187612215565b6128b66020830186612885565b6128c36040830185612215565b6128d06060830184612215565b95945050505050565b7f596f757220616374696f6e206973206e6f7420617574686f72697a656420627960008201527f20746865206f776e65722028636865636b206d696e7420616d6f756e742f436f60208201527f75706f6e29000000000000000000000000000000000000000000000000000000604082015250565b600061295b6045836123fe565b9150612966826128d9565b606082019050919050565b6000602082019050818103600083015261298a8161294e565b9050919050565b60006040820190506129a66000830185612275565b6129b36020830184612016565b9392505050565b7f57686974656c697374206c696d69742072656163686564000000000000000000600082015250565b60006129f06017836123fe565b91506129fb826129ba565b602082019050919050565b60006020820190508181036000830152612a1f816129e3565b9050919050565b6000612a318261200c565b9150612a3c8361200c565b9250817fffffffffffffffffffffffffffffffffffffffffffffffffffffffffffffffff0483118215151615612a7557612a74612579565b5b828202905092915050565b7f77726f6e672045544820616d6f756e7400000000000000000000000000000000600082015250565b6000612ab66010836123fe565b9150612ac182612a80565b602082019050919050565b60006020820190508181036000830152612ae581612aa9565b9050919050565b6000612af78261200c565b9150612b028361200c565b925082821015612b1557612b14612579565b5b828203905092915050565b7f4974206973206e6f74206f70656e656420746f207075626c69632073616c652060008201527f7965742e00000000000000000000000000000000000000000000000000000000602082015250565b6000612b7c6024836123fe565b9150612b8782612b20565b604082019050919050565b60006020820190508181036000830152612bab81612b6f565b9050919050565b7f43616e6e6f7420657863656564206d6178206e667420706572206d696e740000600082015250565b6000612be8601e836123fe565b9150612bf382612bb2565b602082019050919050565b60006020820190508181036000830152612c1781612bdb565b9050919050565b7f4d696e74732065786365656473206d617820737570706c790000000000000000600082015250565b6000612c546018836123fe565b9150612c5f82612c1e565b602082019050919050565b60006020820190508181036000830152612c8381612c47565b9050919050565b7f4f776e61626c653a206e6577206f776e657220697320746865207a65726f206160008201527f6464726573730000000000000000000000000000000000000000000000000000602082015250565b6000612ce66026836123fe565b9150612cf182612c8a565b604082019050919050565b60006020820190508181036000830152612d1581612cd9565b9050919050565b7f4f776e61626c653a2063616c6c6572206973206e6f7420746865206f776e6572600082015250565b6000612d526020836123fe565b9150612d5d82612d1c565b602082019050919050565b60006020820190508181036000830152612d8181612d45565b9050919050565b600081905092915050565b7f1901000000000000000000000000000000000000000000000000000000000000600082015250565b6000612dc9600283612d88565b9150612dd482612d93565b600282019050919050565b6000819050919050565b612dfa612df582612164565b612ddf565b82525050565b6000612e0b82612dbc565b9150612e178285612de9565b602082019150612e278284612de9565b6020820191508190509392505050565b600060a082019050612e4c6000830188612215565b612e596020830187612215565b612e666040830186612215565b612e736060830185612016565b612e806080830184612275565b969550505050505056fea2646970667358221220f6b822eb555eac0d240741381115a0f61e3e536ee9e15eab332f6ad75785607964736f6c63430008080033",
  "linkReferences": {},
  "deployedLinkReferences": {}
}